:020000040800F2
:100000000000082049210008A91B0008AB1B0008BC
:10001000AD1B0008AF1B0008B11B0008000000006A
:10002000000000000000000000000000D16F000888
:10003000B31B00080000000071700008D5700008B4
:1000400099210008992100089921000899210008A8
:100050009921000899210008992100089921000898
:100060009921000899210008992100089921000888
:100070009921000899210008992100089921000878
:100080009921000899210008992100089921000868
:100090009921000899210008992100089921000858
:1000A0009921000899210008992100089921000848
:1000B0009921000899210008992100089921000838
:1000C0009921000899210008992100089921000828
:1000D0009921000899210008992100089921000818
:1000E0009921000899210008992100089921000808
:1000F00099210008992100089921000899210008F8
:1001000099210008992100089921000899210008E7
:100110009921000899210008B51B000899210008C1
:10012000992100089921000899210008D51B000891
:1001300099210008992100089921000899210008B7
:1001400099210008992100089921000899210008A7
:10015000992100089921000899210008E11B000855
:100160009921000899210008992100089921000887
:100170009921000899210008992100080000000039
:100180009921000899210008992100089921000867
:100190009921000899210008992100089921000857
:1001A0009921000899210008992100089921000847
:1001B0009921000899210008992100089921000837
:1001C00099210008992100080000000099210008E9
:1001D0009921000899210008992100089921000817
:1001E0009921000899210008992100089921000807
:0801F000992100089921000883
:1002000010B5054C237833B9044B13B10448AFF350
:1002100000800123237010BDBC00002000000000FE
:100220006091000808B5034B1BB103490348AFF3C5
:10023000008008BD00000000C000002060910008A0
:1002400001F0FF01102A2BDB10F0070F08D010F887
:10025000013B013A8B422DD010F0070F42B3F6D18B
:10026000F0B441EA012141EA014122F007047FF0A4
:1002700000070023F0E80256083C85EA010586EAFB
:10028000010685FA47F5A3FA87F586FA47F6A5FA37
:1002900087F68EB9EED1F0BC01F0FF0102F0070243
:1002A00032B110F8013B013A83EA010313B1F8D1EE
:1002B0000020704701387047002D06BF35460338CF
:1002C000073815F0010F07D1013015F4807F02BF08
:1002D000013015F4C03F0130F0BC0138704700BF59
:1002E00053B94AB9002908BF00281CBF4FF0FF319D
:1002F0004FF0FF3000F070B9ADF1080C6DE904CE9D
:1003000000F006F8DDF804E0DDE9022304B07047F0
:100310002DE9F047089E0D4604460F46002B4AD1B2
:100320008A42944665D9B2FA82F343B102FA03FCD9
:10033000C3F120029F4020FA02F217439C404FEA8B
:100340001C4E1FFA8CF5B7FBFEF1220C0EFB117749
:1003500042EA074201FB05F090420AD91CEB020277
:1003600001F1FF3780F01C81904240F2198102397F
:100370006244121AA4B2B2FBFEF00EFB102244EA51
:10038000024400FB05F5A5420AD91CEB040400F168
:10039000FF3280F00781A54240F2048164440238B4
:1003A00040EA0140641B00211EB1DC400023C6E985
:1003B0000043BDE8F0878B4208D9002E00F0ED80A5
:1003C0000021C6E900050846BDE8F087B3FA83F1CD
:1003D000002949D1AB4202D3824200F2F880841A4C
:1003E00065EB030201201746002EE2D0C6E9004764
:1003F000DFE702B9FFDEB2FA82F3002B40F0908013
:100400008A1A4FEA1C471FFA8CFE0121B2FBF7F54E
:1004100007FB1520220C42EA00420EFB05F0904239
:1004200008D91CEB020205F1FF3802D2904200F21B
:10043000CB804546121AA4B2B2FBF7F007FB10229C
:1004400044EA02440EFB00FEA64508D91CEB040456
:1004500000F1FF3202D2A64500F2BB801046A4EBA9
:100460000E0440EA05409FE7C1F120078B4022FAC5
:1004700007FC4CEA030C05FA01F420FA07F3FD40EF
:100480004FEA1C492343B5FBF9F81FFA8CFE09FB20
:1004900018551C0C44EA054408FB0EF5A54202FA67
:1004A00001F200FA01F00BD91CEB040408F1FF3A49
:1004B00080F08880A54240F28580A8F1020864445B
:1004C000641B9DB2B4FBF9F309FB134445EA0444F1
:1004D00003FB0EFEA64508D91CEB040403F1FF350F
:1004E0006CD2A6456AD9023B644443EA0843A3FBA5
:1004F0000295A4EB0E04AC42C846AE4656D353D088
:1005000056B1B0EB080264EB0E0404FA07F7CA40D8
:10051000CC401743C6E9007418460021BDE8F087B7
:10052000C3F1200102FA03FC20FA01F225FA01F1DD
:100530009D402A434FEA1C471FFA8CFEB1FBF7F09F
:1005400007FB1015110C41EA054100FB0EF58D4229
:1005500004FA03F408D91CEB010100F1FF382FD293
:100560008D422DD902386144491B92B2B1FBF7F597
:1005700007FB151142EA014205FB0EF1914208D931
:100580001CEB020205F1FF3816D2914214D9023D4C
:100590006244521A45EA004138E73146304608E7DE
:1005A0003946E6E61046FBE64845A9D2B9EB020813
:1005B00065EB0C0E013BA3E74546EAE72B4694E7C3
:1005C0004046D1E7D0467BE7023D624432E7084629
:1005D0000AE76444023842E7704700BF03280CD89A
:1005E000DFE800F002060C0E00230B704B7003E0F6
:1005F00000230B704B702B238B7070471B23F4E789
:1006000027230B7013234B700023F5E70000000035
:100610001F4B1B68023310B51E4C062B11D8DFE8A8
:1006200003F0040C0E292D2F31001B4B00222360F8
:1006300010211A4802F09AF903E0194BF6E700235B
:10064000236094ED007A0022DFED167A164B1146F6
:1006500027EE277A15489FED0C5BB7EEC77ABDE809
:10066000104087EE056BBCEEC66B83ED006A1B681D
:1006700001F051BE0A4B01222360D9E7064BFAE78D
:100680000B4BF8E70B4BF6E76666666666660A4054
:10069000F0000020DC0000206666263F00040240D7
:1006A0006666E63E00008045D80000200401002078
:1006B0006666663F9A99993F024610B570B94FF445
:1006C0000041074802F052F9064C4FF4FA734620F5
:1006D000E36304F06BFE0023E36310BD0122EEE749
:1006E000000C02400008004070B5134C054623681A
:1006F000834207D02368114E8342236818DD2368A4
:100700009D4200D170BD0020FFF7D6FF322004F0DB
:100710004DFE23685A1E22603360F0E70120FFF788
:10072000CBFF322004F042FE23685A1C2260336063
:100730002368AB42F2D1E5E7F8000020FC0000207E
:100740002DE9F84F3B4B4FF0010A3B4A064619682A
:100750000325DFF8FC8011600022384C384FDFF8A9
:10076000F4901A60FFF754FFD8F800003D7089F844
:1007700000A084F800A005F0F9FC84F800A0002E89
:100780004FD1304B186805F0F1FC6FF00200DFF834
:10079000C8A00125FFF7A8FFDFF8C0B0DAF8000015
:1007A000257005F0E3FC4FF4616004F0FFFDDBF819
:1007B0000000257005F0DAFC002E0CBF03206FF05E
:1007C0000200FFF791FFDAF80000257005F0CEFC7B
:1007D00040F63C7004F0EAFDDBF80000257005F0FF
:1007E000C5FC0020FFF780FFDBF80000257005F056
:1007F000BDFC41F2EC3004F0D9FDDAF800002570C0
:1008000005F0B4FC104B1B7803F0FF027BB13D7088
:1008100089F80050D8F800002570BDE8F84F05F0C1
:10082000A5BC0A4B186805F0A1FC2846AFE73A7052
:10083000EEE700BFF0000020F4000020E8000020F8
:100840000001002038010020EA0000204C010020B7
:1008500034010020EE0000202801002018010020B3
:1008600013B50B4B00240B48CDE90044036001F0A5
:1008700015FD08B100F04AFF002269460548CDE9A0
:10088000004401F08DFD08B100F040FF02B010BD42
:10089000007400400401002010B588B00446142202
:1008A000002103A807F0D1FD2268144B9A4223D1FE
:1008B00003F5E23303A912481A6C42F000521A649D
:1008C0001A6C02F000520192019A1A6B42F0010276
:1008D0001A6310221B6B03F001030293029B032394
:1008E000CDE9032301F060FF36200022052101F04D
:1008F00095FC362001F0C4FC08B010BD0074004027
:10090000000002400A4B07B51A6B05213B2042F458
:1009100080021A6300221B6B03F480030193019B86
:1009200001F07CFC3B2003B05DF804EB01F0A8BCB7
:1009300000380240F8B501F067F8284D0020284C37
:1009400000F09EFF00210220264E01F03DF8012319
:100950002548264F95E8060001F020F81E210220C8
:1009600001F032F80123224894E8060001F016F85D
:100970000123204894E8060001F010F800F08CFFF5
:1009800040F6B83004F012FD002000F079FF337813
:1009900003F0FF01CBB10021022001F015F8012383
:1009A000154895E8060000F0F9FF1E21022001F02D
:1009B0000BF80123114894E8060000F0EFFF00F067
:1009C0006BFF002005F086FEDEE7022000F0FCFF52
:1009D0000123384695E80600E5E700BF48000020FF
:1009E00040000020E9000020140000202C0000201E
:1009F0000B00002039000020220000200000002011
:100A0000174D184C184E08B5002005F063FE2B78E2
:100A1000013B0D2B21D8DFE803F0070C0E10121458
:100A200016202020181A1C1E104B186805F09EFB7B
:100A3000EAE70F4BF9E70F4BF7E70F4BF5E70F4BE3
:100A4000F3E70F4BF1E70F4BEFE70F4BEDE70F4BE2
:100A5000EBE70F4BE9E73068E8E72068E6E700BF1F
:100A6000E00000202001002058010020500100205B
:100A70003001002034010020380100204C0100200A
:100A8000400100204401002018010020280100201E
:100A90005401002000260D4C0D4D08B5002005F036
:100AA00019FE2378002BF9D026702A78094B02F022
:100AB000FF014AB101221A70074B01221A70074B3D
:100AC000186805F053FBE9E71970F5E7EC00002022
:100AD000EA00002000010020EE0000203401002088
:100AE00008B5064B186805F041FB054B00221A704B
:100AF000044B1868BDE8084005F038BB50010020E1
:100B0000E90000203C01002080B5234D0027234E42
:100B1000234C002005F0DEFD286805F0DBFD206891
:100B200005F0D8FD1F4B204A196811601F60FFF7C0
:100B30006FFD01231D4A022113701D4A11701D4AC9
:100B400013701D4A13701D4B186805F00FFB002031
:100B5000FFF7CAFD1A4B28681F7005F0A3FA20683A
:100B600005F0A0FA174A0021174804F0CBFB174AFA
:100B700028600021164804F0C5FB002220604FF4D5
:100B80000061304601F0F2FE00224FF48051304601
:100B900001F0ECFEBCE700BF40010020000802406D
:100BA00044010020F0000020F4000020EC000020B0
:100BB00000010020EE000020E800002034010020A9
:100BC000EB000020F4930008750E0008189400084C
:100BD000B10E0008084D094C08B5002005F07AFD5B
:100BE0002B7803F0FF0203B101224FF4805120461D
:100BF00001F0BCFEF1E700BFED000020000802405C
:100C00000D4E0E4C0E4D08B5002005F063FD3378F7
:100C100013B12378002BF7D000232370094B1B78E6
:100C20001BB1094B186805F0A1FA4FF480712846F2
:100C300001F0A1FEE8E700BFEB000020E800002083
:100C400000080240EC00002048010020F8B5104EDA
:100C5000104D114F002005F03DFD337813B12B7876
:100C6000002BF7D000232B700C4B1B781BB10C4BC7
:100C7000186805F07BFA06244FF40071384601F03D
:100C80007AFE4FF4C87004F091FB013CF4D1E1E727
:100C9000EB000020E800002000080240EC000020EB
:100CA00048010020F8B5104E104D114F002005F0FE
:100CB00011FD337813B12B78002BF7D000232B7064
:100CC0000C4B1B781BB10C4B186805F04FFA06242F
:100CD0004FF48061384601F04EFE4FF4C87004F0C6
:100CE00065FB013CF4D1E1E7EB000020E8000020C7
:100CF00000080240EC00002048010020094C08B523
:100D0000002005F0E7FC4FF40061204601F033FEBF
:100D10004FF4FA7004F04AFB4FF40061204601F0F2
:100D20002AFEEDE7000802402DE9F04790B00422CA
:100D30000024474E00AF64234648B91834707C60E5
:100D400002F0CCFF0122042307F108053078394670
:100D500087F82440C7E90A233F4B3B62FFF73EFC7C
:100D600038782B467978BA78013418705970033383
:100D7000072C03F8012CF7D107F12000C7E90C4537
:100D800001F0CEF828B1354B3548196807F0F8FA6C
:100D9000FEE707F12000DFF8D4A001F093F9073057
:100DA000DFF8CC9020F00700ADEB000D07F120003C
:100DB0006946E84601F092F907F1200001F082F956
:100DC000694682B2234803F04DF80A2001F002FA86
:100DD000002005F07FFC9AF80020224B12B11A780F
:100DE000002AF5D000221A7099F8003003F0FF02B3
:100DF0002BB91D4B197801B901221A7032700024E9
:100E0000394689F800403078FFF7E8FB97F800C0D2
:100E100078782A46B9782346013382F800C05070AA
:100E20000332072B02F8011CF6D1414607F12000DE
:100E30007D6301F053F907F1200001F043F94146C9
:100E400082B2044803F00EF80A2001F0C3F9BFE7AC
:100E5000000100201402002001033F01E0070020F0
:100E600078910008E8000020EA000020EB00002054
:100E7000EE00002000250B4C08B5002005F02AFCF0
:100E80002378002BF9D1084B1B781BB1074B18684E
:100E900005F06CF9012300202370FFF751FC257049
:100EA000EBE700BFEB000020EC0000204801002031
:100EB00000250A4C08B5002005F00CFC2378002B17
:100EC000F9D1074B1B781BB1064B186805F04EF99A
:100ED00001202070FFF734FC2570ECE7EB000020C8
:100EE000EC0000204801002008B50023174D184CE5
:100EF0001A461946174801F00EFA002005F0EAFBE1
:100F00002A78154B12B11A78002AF6D000221A70EE
:100F1000124B1B781BB1124B186805F027F9236898
:100F2000032B05DC22680F4B1A6023680133236012
:100F3000FFF76EFB2368002BDFDB0B4B00221A70E0
:100F40000A4B186805F012F9D7E700BFEB00002044
:100F5000F000002004010020E8000020EC00002048
:100F600048010020F4000020ED0000205C0100207A
:100F700008B50023184D194C1A461946184801F0B7
:100F8000CAF9002005F0A6FB2A78164B12B11A7890
:100F9000002AF6D000221A70134B1B781BB1134B9A
:100FA000186805F0E3F82368013305DB2268104B6D
:100FB0001A602368013B2360FFF72AFB2368002B9C
:100FC00004DB0C4B186805F0D1F8DAE70A4B012274
:100FD0001A700A4BF6E700BFEB000020F00000207B
:100FE00004010020E8000020EC000020480100205F
:100FF000F40000201C010020ED0000205C01002016
:10100000104D114C114E08B5002005F063FB2B78F4
:1010100013B12378002BF7D00023237033781BB152
:101020000B4B186805F0A2F80A4B1A680232EBDB8A
:1010300019680020084A11601A68013A1A60FFF71F
:101040003BFBE1E7EB000020E8000020EC00002083
:1010500048010020F8000020FC000020104D114C39
:10106000114E08B5002005F035FB2B7813B123781D
:10107000002BF7D00023237033781BB10B4B18687B
:1010800005F074F80A4B1A68022AEBDC1968012093
:10109000084A11601A6801321A60FFF70DFBE1E798
:1010A000EB000020E8000020EC00002048010020B8
:1010B000F8000020FC000020084E094D094C08B53E
:1010C000002005F007FB40F6AC51306804F0C6F98B
:1010D000012320682B7005F049F8F1E72401002076
:1010E000E90000203C0100200022404808B51146DC
:1010F0003F4B04F075F93F4B3F4A002118603F48D1
:1011000004F000F93E4B3F4A002118603E4804F0CD
:10111000F9F83E4B3E4A002118603E4804F0F2F8D0
:101120003D4B3E4A002118603D4804F0EBF83D4B32
:101130003D4A002118603D4804F0E4F83C4B3D4A2C
:10114000002118603C4804F0DDF83C4B3C4A00218B
:1011500018603C4804F0D6F83B4B3C4A002118602C
:101160003B4804F0CFF83B4B3B4A002118603B481A
:1011700004F0C8F83A4B3B4A002118603A4804F0A2
:10118000C1F83A4B3A4A002118603A4804F0BAF8DC
:10119000394B3A4A00211860394804F0B3F8394B0A
:1011A000394A00211860394804F0ACF8384B394A04
:1011B00000211860384804F0A5F8384B384A00215F
:1011C0001860384804F09EF8374B384A0021186000
:1011D000374804F097F8374B374A002118603748F2
:1011E00004F090F8364B186008BD00BFE10A000813
:1011F000E892000824010020D09300083509000877
:101200003C01002040930008010A00082C01002046
:1012100084940008090B0008500100206493000822
:10122000010C00083001002088930008290D0008F7
:1012300034010020AC9300084D0C00083801002058
:1012400060940008A50C00084C010020F4930008ED
:10125000750E00084001002018940008B10E000827
:1012600044010020A0920008E90E000818010020A7
:101270001C930008710F000828010020A8940008A2
:101280000110000854010020CC9400085D100008F3
:1012900058010020F8920008B91000082001002031
:1012A000C4920008FD0C00081C010020F094000806
:1012B000D50B00085C0100203C940008950A00084A
:1012C000480100202DE9F04F8DB014220021DFF8F5
:1012D000F0B107A8764F07F0B8F8764B44F29101C9
:1012E000DFF8E0911A6B00240226032542F0040285
:1012F0004FF00B084FF0010A1A631A6B02F0040258
:101300000192019A1A6B42F080021A631A6B02F082
:1013100080020292029A1A6B42F001021A631A6B5F
:1013200002F001020392039A1A6B42F002021A635E
:101330001A6B02F002020492049A1A6B42F008023D
:101340001A631A6B02F008020592059A1A6B42F0B2
:1013500040021A6300221B6B03F040030693069BB6
:10136000554B184601F002FB584600224FF400414D
:1013700001F0FCFA38460022402101F0F7FA484615
:1013800000224FF4F85101F0F1FA4FF400534FF4FA
:10139000881207A948460994CDE9073201F004FAFA
:1013A000322207A948460994CDE90726CDE90A5813
:1013B00001F0FAF9862207A9CDF82C80CDE907269D
:1013C0003E4A1046CDE9094501F0EEF93A4B44F2A8
:1013D00091011846CDE9071A07A9CDE9094401F0A2
:1013E000E3F94FF4005307A9CDF82C80CDE9073677
:1013F00003F1804303F5F2331846CDE9094501F0C6
:10140000D3F94FF4407307A95846CDE907360723AF
:10141000CDE909450B9301F0C7F94FF4004307A943
:101420005846CDE9073ACDE9094401F0BDF940231A
:1014300007A93846CDE9073ACDE9094401F0B4F9E6
:10144000802307A938460994CDE9073401F0ACF9A7
:101450004FF4F85307A94846CDE9073ACDE90944C6
:1014600001F0A2F94FF4E853144A07A9CDE9073671
:101470000A2310460B93CDE9094501F095F90F4A6F
:101480004FF4007307A910460994CDE9073401F021
:101490008BF94FF4205307A93846CDF82C80CDE9BD
:1014A0000736CDE9094501F07FF90DB0BDE8F08FB1
:1014B00000180240003802400004024000000240D0
:1014C000000C02400008024008B513480122134BEB
:1014D0000360A3F1FE53A3F6984343600023C0E9E1
:1014E0000232C0E90433C0E90633036201F066FB4F
:1014F00008B100F00BF90021074801F08BFC08B19E
:1015000000F004F90021044801F0AAFC18B1BDE87C
:10151000084000F0FBB808BD600100200054004006
:1015200010B5ACB004461422002103A806F08DFFCC
:101530009022002108A806F088FF2268174B9A42E3
:101540002AD14FF4804308A8089301F0B3FF08B1F3
:1015500000F0DCF8124C4FF4407200211148236B6C
:1015600043F002032363236B03F002030193019B07
:101570001223CDE903230323CDE90513042303A993
:10158000079301F011F9236C43F400132364236CD7
:1015900003F400130293029B2CB010BD00540040D2
:1015A000003802400004024010B594B0102200211F
:1015B000022409A806F049FF1422002102A806F01F
:1015C00044FF214B012104201A6C42F080521A641E
:1015D0001B6C03F080530093009B1C4B1A6842F471
:1015E00040421A601B68139403F440430193019B2B
:1015F0004FF4A023CDE907134FF48003CDE90D4349
:10160000D823CDE90F0307A8CDE9114401F086FCEA
:1016100008B172B6FEE701F049FC08B172B6FEE708
:101620000F234FF4A0520490072102A8CDE9023401
:101630004FF48053CDE9052301F060FE08B172B686
:10164000FEE714B010BD00BF00380240007000403B
:1016500008B500F0A2FDFFF7A7FFFFF733FEFFF785
:1016600051F900F055F8FFF7FBF8FFF72DFF00F0F8
:101670004BFB00F085FB05F035FF05F0EDFD06F0B6
:10168000A1F9012209490A4803F0DAFD00210948BD
:1016900000F017FE0821084803F0A6F803F0F8FD53
:1016A000FFF722FD03F00EFEFEE700BFE000002082
:1016B0001C07002004010020D006002008B50B4BB9
:1016C000186804F0A3FD48B14FF0E0234FF08052BA
:1016D000C3F8042DBFF34F8FBFF36F8F012204496E
:1016E0000448BDE8084003F0ABBD00BF2C0100205A
:1016F000E00000201C0700200268034B9A4201D141
:1017000000F056BD704700BF0010004072B6FEE703
:1017100008B512484FF48273114A4FF400414FF458
:10172000007CC0E900234FF4E0631822C0E90213F3
:10173000C0E906C200230722C0E90433C0E9083328
:101740008362C0E90B230823436302F059FA18B1FE
:10175000BDE80840FFF7DABF08BD00BF1402002053
:1017600000300140F0B589B006461422002103A8DC
:1017700006F06BFE3268294B9A424CD103F5843354
:101780000225052403275A6C03A9254842F48052F8
:101790005A645A6C02F480520092009A1A6B42F01A
:1017A00001021A631A6B02F001020192019A1A6B8C
:1017B00042F008021A631B6B03F008030293029BBA
:1017C0002023CDE90674CDE9033500F0EDFF802339
:1017D000144803A90794144CCDE903350025CDE93D
:1017E000055700F0E1FF4FF0C063104A2046C4E9FE
:1017F00000234023C4E902354FF48063C4E9065551
:10180000C4E90435C4E9085500F004FE08B1FFF747
:101810007DFF7465A66309B0F0BD00BF00300140D4
:1018200000000240000C0240B40100205864024055
:101830007FB501234FF0FF3278218DF8170006485D
:10184000CDE901320DF117020092002201F008FAF1
:1018500007B05DF804FB00BF600100201FB54FF02A
:10186000FF3389B2402202930123CDE900017821A0
:10187000024801F0F5F905B05DF804FB60010020B5
:1018800000284FF48062034814BFFF21002106F0B6
:10189000DCBD00BF7E02002038B50A4DB0242046D2
:1018A0000134FFF7C5FF0020FFF7C2FF1020E4B2AC
:1018B000FFF7BEFF284680218035FFF7CFFFB82C09
:1018C000EDD138BD7E020020030630B510D43F298B
:1018D0000ED8CB08074D012401F0070100EBC3101F
:1018E00004FA01F1A2422B5C0CBF0B438B432B5437
:1018F00030BD00BF7E0200202DE9F04F054687B0C5
:10190000A5F12004019306A8E3B25E2B00E90600CE
:1019100040D8DFF884A09DF810B0BAF8006006EB5C
:101920000B03802B36DCBAF802309DF8119000933F
:1019300003EB0902402A2DDC09FB04F44FF00008F8
:101940006400C14506D85E44AAF80060284607B086
:10195000BDE8F08F059A0027135B0293009B08EB0C
:101960000301C9B2BB4503D808F101080234E8E716
:10197000029BB819039103FA07F2C0B201371304AE
:1019800057BF019B019AB3FA83F25209FFF79CFFFC
:101990000399E7E70025D9E778020020F7B51F464D
:1019A0006E46451E86E8060015F8014F44B12046F4
:1019B0003B4696E80600FFF79FFF2C78A042F3D045
:1019C000204603B0F0BD0000014B188059807047DD
:1019D0007802002010B504468120FFF729FF204639
:1019E000BDE81040FFF724BF0246002803460CBFA5
:1019F00013460123034A14BFAF20AE205371FFF7F3
:101A000017BF00BF7802002008B5642000F0E2FB99
:101A10000020FFF7E9FF2020FFF70AFF0020FFF773
:101A200007FFB020FFF704FFC820FFF701FF0020E9
:101A3000FFF7FEFE1020FFF7FBFE4020FFF7F8FE49
:101A4000FF20FFF7C7FFA120FFF7F2FEA620FFF758
:101A5000EFFEA820FFF7ECFE3F20FFF7E9FEA420F1
:101A6000FFF7E6FED320FFF7E3FE0020FFF7E0FEDE
:101A7000D520FFF7DDFEF020FFF7DAFED920FFF7D3
:101A8000D7FE2220FFF7D4FEDA20FFF7D1FE122086
:101A9000FFF7CEFEDB20FFF7CBFE2020FFF7C8FECE
:101AA0008D20FFF7C5FE1420FFF7C2FE0120FFF7CF
:101AB0009BFF0020FFF7E4FEFFF7EEFE034B002242
:101AC0001A805A8001221A7108BD00BF78020020D6
:101AD0000D4B82B00F216FF001001A6C42F0805262
:101AE0001A641A6C02F080520092009A5A6C42F406
:101AF00080425A6400225B6C03F480430193019B93
:101B000002B000F08BBB00BF00380240214B1A6CC2
:101B100042F0100270B51A6488B01B6C054601A92A
:101B200003A803F010030293029B01F0A5FC069B9F
:101B30004BBB01F081FC184E184B336040F2E73389
:101B4000F360174BB0FBF3F3013B304673600023A7
:101B50003361B360B36102F097FC044680B930464C
:101B600002F03AFB044658B9362000F089FB0F2DED
:101B70000DD822462946362000F050FB094B1D6047
:101B8000204608B070BD01F057FC4000D3E70124A7
:101B9000F6E700BF00380240800600200010004039
:101BA00040420F0058000020FEE7FEE7FEE7FEE798
:101BB000FEE77047054808B503790BB100F0BEFB9E
:101BC0000348BDE8084002F049BB00BF0401002003
:101BD00080060020014800F029BD00BFB4010020AC
:101BE000014802F027BF00BF1C07002070B50D465A
:101BF00014460E46731B9C4201DC204670BDAFF3B9
:101C0000008006F8010BF5E770B50D4614460E4648
:101C1000731B9C4201DC204670BD16F8010BAFF32C
:101C20000080F5E74FF0FF3070474FF4005300207D
:101C30004B60704701207047002070470B4A0346F5
:101C4000116810B509B90A491160106809490A4CB0
:101C50000344091B8B4206D906F09CFC0C2303604D
:101C60004FF0FF3010BD1360FCE700BFCC06002032
:101C7000687B00200000082000040000034AD2F81E
:101C8000883043F47003C2F88830704700ED00E0FC
:101C9000026882B0074B9A420AD103F50C331A6CE2
:101CA00042F004021A641B6C03F004030193019BCD
:101CB00002B070470008004010B586B004461422F8
:101CC000002101A806F0C1FB22680D4B9A4214D1F5
:101CD00003F50C3301A90B481A6B42F008021A6392
:101CE0004FF480421B6B03F008030093009B022318
:101CF000CDE90123059300F057FD06B010BD00BFEC
:101D000000080040000C024010B500248AB01C22DC
:101D1000214603A80294CDE9004406F096FB16483C
:101D20003F23164984608461C0E9001340F2E73321
:101D3000C0E9033402F0D8FB08B1FFF7E7FC6946BD
:101D40000D480094029402F051FD08B1FFF7DEFC4B
:101D50000023602203A9084805930793CDE90323D4
:101D6000082202F029FC08B1FFF7D0FC0248FFF777
:101D7000A3FF0AB010BD00BFD0060020000800403D
:101D800008B50C484FF4E1330B4AC0E900230023A7
:101D90000C22C0E9023303614362C0E90523C0E9B4
:101DA000073303F0C3F918B1BDE80840FFF7AEBC34
:101DB00008BD00BF1C0700200014014010B5ACB0E6
:101DC00004461422002103A806F03FFB90220021C4
:101DD00008A806F03AFB22681B4B9A4232D14FF416
:101DE000006308A8089301F065FB08B1FFF78EFCBB
:101DF000164B002403A916485A6C42F020025A647C
:101E00005A6C02F020020192019A1A6B42F04002D1
:101E10001A634FF484421B6B03F040030293029B4E
:101E20000223CDE903230323CDE9054308230793C8
:101E300000F0BAFC47202246052100F0EFF94720C8
:101E400000F01EFA2CB010BD001401400038024012
:101E500000180240064A002310B51446C15C21B1A7
:101E6000013302F8011B3B2BF8D10022E25410BDD4
:101E7000A407002070B580249DF8106024FA03F5B3
:101E8000013324FA03F33540334060B9002B0CBF13
:101E90001046084625B109014AB21043C0B270BDD0
:101EA000120152B2F9E7002D0CBF104608461BB1D3
:101EB000090149B20843F1E7120151B2FAE72DE9ED
:101EC000F341037805460E461446022B15D1002730
:101ED000D4F800803B466A7E0237297E2879009636
:101EE000FFF7C8FF88F800002368082F03F10103FB
:101EF0002360EDD102B0BDE8F0810023802020FAFC
:101F000003F221680133324214BF2A7E6A7E082B15
:101F10000A70226802F101022260F0D1EAE70000B3
:101F20002DE9F8435D4A5E4B136000221A70077872
:101F30007B1E012B06D95B48FFF78CFF4FF0FF306B
:101F4000BDE8F8838378012B07D01F2B15D8022B0F
:101F500017D9554ADA40D40713D54278012A07D059
:101F60001F2A10D8022A12D94F49D140C9070ED5CD
:101F7000C17801290DD94D48DEE703F0BF023F2AA1
:101F8000EBD04B48D8E702F0BF013F29F0D04948D9
:101F9000D2E70479012C01D94748CDE7934201D813
:101FA0004648C9E7022F03D10E2B01D94448C3E7A5
:101FB0008B408A40DBB242760376ACBB5FFA82FC90
:101FC000022F4FEA4304C2F3C4094FEA4C08C2F39C
:101FD00046024FEACC0E4FEAC3014FFA88F84FFA97
:101FE0008EFE4FEAD3064FEA530564B249B21FD1C1
:101FF00009F0010902F0020206F0010605F00205EF
:1020000049EA020908F004082E4304F0040449EAEE
:1020100008090EF0080E264301F0080149EA0E0EE9
:10202000314380F819E001760023C361184687E741
:102030004FEA6C1709F0040902F0080208F01008D2
:1020400007F002070EF0200E06F0040605F0080562
:1020500047EA090704F0100401F0200147EACC1711
:102060004FEA4C1C3A435F110CF0400C42EA080264
:1020700007F0020742EA0E0242EA0C024276DA0157
:1020800042EAD3125B013A4303F0400332432A434E
:1020900022430A4313430376C6E700BFE00700204C
:1020A000A4070020F4A900088880008068AA00081E
:1020B00018AA000840AA000890AA0008BAAA0008B6
:1020C000EDAA000803780269012BD0E902300CBFA9
:1020D00018210C21184401FB02007047F7B50022BB
:1020E000044645690B4617460191581AA668864270
:1020F0000ED802B10193002623690335B3420BD8F1
:10210000002301991846E2689A4219D803B0F0BD3D
:10211000012203F8017BE8E701AA15F8021C20461A
:102120000136FFF7CCFE01AA15F8031C2046FFF785
:10213000C6FE01AA15F8011C2046FFF7C0FEDBE72A
:10214000C8540133DFE70000DFF834D00D480E49F2
:102150000E4A002302E0D458C4500433C4188C4201
:10216000F9D30B4A0B4C002301E013600432A24266
:10217000FBD3FFF783FD06F013FAFFF769FA704708
:102180000000082000000020BC00002050AC000827
:10219000BC000020687B0020FEE708B5032000F0AB
:1021A0002BF80520FFF7B2FCFFF792FC002008BDDA
:1021B000034A044B11681B780B441360704700BF3F
:1021C000E407002054000020014B1868704700BF4E
:1021D000E407002038B50446FFF7F6FF0546631C08
:1021E0001EBF044B1B78E418FFF7EEFF431BA3420E
:1021F000FAD338BD5400002007490302CA6803F42B
:10220000E06322F4E0621204120C134343F0BF6354
:1022100043F40033CB60704700ED00E0164B30B55F
:10222000DC68C4F30224C4F10703251D042B28BF76
:102230000423062D4FF0FF358CBF033C002405FA24
:1022400003F3002805FA04F521EA030322EA050254
:1022500003FA04F343EA02034FEA0313DBB206DB9B
:1022600000F1604000F5614080F8003330BD00F0BF
:102270000F00024A1354F9E700ED00E014ED00E00E
:10228000002807DB4109012300F01F00024A8340B8
:1022900042F82130704700BF00E100E010B504466D
:1022A00068B1037903F0FF0213B94271FEF7F4FA43
:1022B00002230020237101232061237110BD01201E
:1022C000FCE730B54379012B4FF0020316D00371C0
:1022D00001F01004036801221D68A2402A431A601D
:1022E00071B91A6802F03C023C2A03D15A6842F0E4
:1022F00001025A600123037100234371184630BD67
:1023000019683C2201F47011A2409142F2D15A683E
:1023100042F00202EDE713B5002400680194019039
:1023200041B9019908310A4400200192019A1360D1
:1023300002B010BD01991431F5E7704703681A68BF
:10234000910410B5044611D55A6B92040ED504229F
:102350000271026942F0010202614FF400525A63B5
:102360001A6822F480521A60FFF7E7FF23681A68A0
:10237000910014D55A6B920011D504222046227187
:10238000226942F0020222614FF000525A631A6839
:1023900022F08052BDE810401A6000F024B810BD51
:1023A00030B54379012B4FF002031AD0037102F0CC
:1023B0001002046840F6FE732568934025EA030581
:1023C000D1E900310B43C021934001FA02F22B43C3
:1023D0002360236823EA020323600123037100239F
:1023E0004371184630BD704703681821DAB223F4F0
:1023F0007F73103A23F00303B2FBF1F110B55F2AAB
:10240000034C88BF0433615C8365C165184610BD09
:102410001CAB000870B50446FFF7D6FE0546002C3D
:1024200071D00223226884F83530002384F83430D8
:10243000136823F00103136022681368D8072ED4B1
:1024400013683248A1691840D4E901352B43E56887
:102450002B4325692B4365692B43E5690B432B43CC
:10246000256A2B430343606A042802BFD4E90B5654
:1024700035432B4304281360536923F0070343EAD1
:10248000000332D1A06AE56A034375B391B901280C
:1024900020D030F0020128D1E90126D51DE0FFF758
:1024A00093FE401B0528C7D920230320636584F8C9
:1024B000350070BDB1F5005F13D1032815D801A117
:1024C00051F820F0DB24000899240008DB240008E0
:1024D000D5240008B5F1C07F07D1402301206365F2
:1024E000E5E70228F9D90328D6D053612046FFF743
:1024F0007BFFE26D3F2393408360002001236065F2
:1025000084F83530D5E70120D3E700BF3F8010E0E5
:1025100070B590F83440866D012C34D0012400252C
:1025200080F8344090F83540012C4FF0020428D157
:1025300080F8354004684565256825F480252560C8
:1025400063608368402B19D1A260E160C26D3F23B4
:102550009340B360236843F016032360636943F03C
:1025600080036361036C1BB1236843F0080323609D
:102570002368002043F00103236070BDA160E26086
:10258000E4E780F834500220F7E770B50446866D22
:10259000FFF71AFE054694F83530022B06D080234B
:1025A00001206365002384F8343070BD23681A6805
:1025B00022F016021A605A6922F080025A61226CD7
:1025C0000AB9A26C1AB11A6822F008021A601A68D5
:1025D00022F001021A6023681B6813F0010308D17E
:1025E000E16D3F2218468A40B260012284F835200E
:1025F000D8E7FFF7E9FD401B0528ECD9202303208D
:10260000636584F83500CDE790F83530022B03D0B0
:1026100080234365012070470268052380F8353028
:102620000020136823F00103136070470023F7B5FF
:10263000019308225B4B0446856D1F68C36D2E68AD
:102640009A4032420CD001680868400708D50868F3
:1026500020F004000860AA60626D42F00102626529
:1026600001229A40324208D021684969090604D5FE
:10267000AA60626D42F00202626504229A40324210
:1026800008D021680968880704D5AA60626D42F005
:102690000402626510229A40324210D02368196801
:1026A00009070CD5AA601A68500337D51B681903AF
:1026B00001D4236C00E0A36C0BB120469847E16D78
:1026C00020228A4032423AD023681868C60636D59E
:1026D000AA6094F83520052A1A6827D122F016023C
:1026E0001A605A6922F080025A61226C0AB9A26CFF
:1026F0001AB11A6822F008021A603F238B40AB60BF
:10270000012384F83530002384F83430236D002B06
:1027100045D0204603B0BDE8F04018471A68D205FE
:10272000C7D41A6822F008021A60C2E7500327D5FE
:102730001B68190331D4636C0BB120469847636D55
:102740006BB3636DDA0719D54FF416532268B7FBE4
:10275000F3F7052384F83530136823F00103136081
:10276000019B0133BB42019302D81368DB07F7D406
:10277000012384F83530002384F83430E36CC6E755
:102780001A6812F4807208D1196821F010011960DA
:10279000012384F8342084F83530E36BCCE703B0B0
:1027A000F0BD00BF500000202DE9F74F0023DFF8F7
:1027B000B8916B4A01240D689C4004EA050CAC43B7
:1027C00040F0B4804D684FEA4308032605F0030447
:1027D00006FA08F6671EF643012F34D8876807EA21
:1027E000060ECF6807FA08F747EA0E0787604768C2
:1027F00027EA0C0EC5F300179F4047EA0E07476013
:10280000C768022C07EA060E8F6807FA08F747EA3E
:102810000E07C76019D14FEAD30A03F0070B4FF038
:102820000F0E00EB8A0A4FEA8B0BDAF820700EFAD3
:102830000BFE27EA0E0E0F6907FA0BF747EA0E07A1
:10284000CAF8207001E0032CDAD1076804FA08F412
:1028500015F4403F07EA060744EA0704046065D020
:10286000D9F8444023F0030603F0030744F48044FE
:1028700006F18046BF00C9F8444006F59C36D9F8F9
:10288000444004F480440194019C0F24D6F808E0ED
:10289000BC402EEA040E334CA0424ED004F58064B6
:1028A000A0424CD004F58064A0424AD004F5806474
:1028B000A04248D004F58064A04246D004F580646C
:1028C000A04244D004F58064A04242D004F5806464
:1028D000A04240D004F58064A0423ED004F580645C
:1028E000A0420CBF09240A24BC40EF0244EA0E04B3
:1028F000B4606FEA0C06946854BF34404CEA040498
:10290000AF029460D46854BF34404CEA0404AF036F
:10291000D460546854BF34404CEA0404ED0354605E
:10292000146854BF34404CEA040414600133102B83
:102930007FF440AF03B0BDE8F08F0024D4E701245A
:10294000D2E70224D0E70324CEE70424CCE7052411
:10295000CAE70624C8E70724C6E70824C4E700BF7F
:10296000003C014000000240003802400AB1816191
:1029700070470904FBE7436901EA030221EA030106
:1029800041EA02418161704703689A69910701D564
:1029900000229A629A69D20703D49A6942F001022E
:1029A0009A61704730B5039DC1F3090104682B4358
:1029B000606843EA0243054A0B4342EA555223F05A
:1029C000004320EA02000343636030BDFF63FF035E
:1029D00003682DE9F0419C6905460F46164614F040
:1029E00010046FD000241022A046DA612B689A6987
:1029F000900661D4B8F1000F35D044F004040120F2
:102A00002E68B369D90505D54FF4807244F00104EE
:102A10000120F2615A0505D54FF4806244F00804A4
:102A20000120F2619B054FD54FF4007344F002047E
:102A3000F3612846FFF7A8FF7368012023F0FF73B6
:102A400023F48B3323F4FF7323F0010373606B6C67
:102A500023436B64202385F84130002385F84230FE
:102A600085F8403032E07A1CC1D0FFF7ADFB801B07
:102A7000B84201D8002FB9D12B68596895F8422087
:102A80009869D2B200040AD5490408D4202A06D095
:102A90005A6842F480425A60FFF796FB06462B685C
:102AA0009B699B06A2D4FFF78FFB801B1928F6D9E0
:102AB00020244FF0010899E7B8F1000F9DD12022A2
:102AC000DA619AE720469BE70028B2D1BDE8F081A1
:102AD00070B504460D46164623689B699B0701D5D1
:102AE000002070BD324629462046FFF771FFA0B98D
:102AF0006A1CF1D0FFF768FB801BA84201D8002DAB
:102B0000EAD1636C43F020036364202384F84130EE
:102B1000002384F8423084F840300120E1E72DE9B9
:102B2000F041069F0446884616461D462268936972
:102B300038EA03030CBF01230023B34201D0002075
:102B400015E06B1CF3D0FFF73FFBC01BA84201D878
:102B5000002DEBD1636C012043F02003636420233C
:102B600084F84130002384F8423084F84030BDE8D6
:102B7000F08170B504460D46164623689B699B0696
:102B800001D5002070BD324629462046FFF720FFC0
:102B900090B9FFF719FB801BA84201D8002DECD19A
:102BA000636C43F020036364202384F841300023E6
:102BB00084F8423084F840300120E3E710B5044641
:102BC00000284AD090F8413003F0FF021BB980F88A
:102BD0004020FEF7A5FC242384F8413023681A68BE
:102BE00022F001021A60626822F070621A619A682B
:102BF00022F400429A60D4E90221012924D142F44E
:102C000000429A605A68002042F0007242F400428A
:102C10005A60DA6822F40042DA60D4E904210A43F7
:102C2000A16942EA0122DA60D4E907210A431A6065
:102C30001A6842F001021A602023606484F841306F
:102C4000206384F8420010BD42F4044202299A60D5
:102C5000D8D14FF400625A60D4E70120F3E70000B6
:102C60002DE9F74F994690F8413004460F46202B46
:102C70001646BDF834A0DDF8388040F0C6800C9BC5
:102C800013B1BAF1000F06D14FF400736364012051
:102C900003B0BDE8F08F90F84030012B00F0B58014
:102CA0004FF0010B80F840B0FFF78EFA192305466C
:102CB00000905A464FF400412046FFF730FF0028AD
:102CC000E5D121235FFA89F23946606384F8413007
:102CD000402384F842300C9B6064204663624C4B76
:102CE000A4F82AA000934FF08073FFF75BFE2A46FA
:102CF00041462046FFF7ECFE18BBB9F1010F2368EF
:102D000015D1F6B20022802120469E6243460095EE
:102D1000FFF705FFA8B9638D9BB2FF2B15D8628D15
:102D20004FF00073009092B22285D2B212E0320AC4
:102D3000414620469A622A46FFF7CAFE08B9236830
:102D4000DFE7002384F84030A1E7FF224FF08073D3
:102D50000090228539462046FFF724FE2A46414648
:102D60002046FFF7B5FE002891D1636A226813F868
:102D7000011B91626362638D228D013B013A9BB21C
:102D800092B26385638D22859BB2B3B1AAB94346E3
:102D9000802120460095FFF7C2FE00287FF477AF20
:102DA000638D9BB2FF2B28D9FF224FF080730090D8
:102DB000228539462046FFF7F5FD638D9BB2002B37
:102DC000CCD12A4641462046FFF7D3FE00287FF4A7
:102DD0005EAF23682021D9615A6822F0FF7222F485
:102DE0008B3222F4FF7222F001025A6084F8411003
:102DF00084F8400084F842004AE7628D4FF0007387
:102E0000009092B22285D2B2D3E7022040E700BF01
:102E10000020008010B590F84130202BDCB21DD18D
:102E200090F84030012B19D0242380F841300368FA
:102E30001A6822F001021A601A6822F480521A609D
:102E40001A68114319601A6842F001021A600023DF
:102E500080F8414080F84030184610BD0220FCE761
:102E600010B590F84130202BDCB21CD190F84030E6
:102E7000012B18D0242380F8413003681A6822F00F
:102E800001021A601A6822F4706242EA0121196094
:102E90001A6842F001021A60002380F8414080F86D
:102EA0004030184610BD0220FCE70000194B37B532
:102EB0001A6C194C42F080521A641B6C03F0805358
:102EC0000193019B236843F480332360FFF77CF96F
:102ED00005466368DA030CD523680F4D43F40033CD
:102EE0002360FFF771F904466B689B030AD5002045
:102EF00006E0FFF769F9401BB0F57A7FE9D90320B6
:102F000003B030BDFFF760F9001BB0F57A7FEBD955
:102F1000F5E700BF00380240007000402DE9F341A2
:102F2000044640B30368DB0710D423689F0761D4CD
:102F30002368190700F1A68023685A0700F1C780AB
:102F4000A269002A40F0308100202CE0944B9A685E
:102F500002F00C02042A07D09A6802F00C02082A38
:102F60000BD15B685E0208D58D4B1B689D03DCD5D9
:102F70006368002BD9D1012015E06368884DB3F553
:102F8000803F13D12B6843F480332B60FFF71CF98B
:102F9000834E054633689803C7D4FFF715F9401BE5
:102FA0006428F7D9032002B0BDE8F0819BB92B68F3
:102FB00023F480332B602B6823F480232B60FFF7EE
:102FC00003F906462B689903AFD5FFF7FDF8801B80
:102FD0006428F7D9E6E7B3F5A02F2B6803D143F4B3
:102FE00080232B60CEE723F480332B602B6823F4FF
:102FF0008023CAE76A4B9A6812F00C0F07D09A68D0
:1030000002F00C02082A11D15B685A020ED4644AFD
:1030100013689B0702D5E368012BACD113682169C3
:1030200023F0F80343EAC103136081E7E3685C4DD2
:10303000BBB12B6843F001032B60FFF7C5F80646D0
:103040002B689F0707D52B68226923F0F80343EA12
:10305000C2032B606CE7FFF7B7F8801B0228EFD99B
:10306000A0E72B6823F001032B60FFF7ADF80646BD
:103070002B6898077FF55CAFFFF7A6F8801B022846
:10308000F6D98FE76369464D83B16B6F43F0010357
:103090006B67FFF799F806466B6F9B073FF54CAFE0
:1030A000FFF792F8801B0228F6D97BE76B6F23F0BD
:1030B00001036B67FFF788F806466B6F9F077FF584
:1030C0003BAFFFF781F8801B0228F6D96AE7344B43
:1030D0001A6CD00027D41A6C012742F080521A646F
:1030E0001B6C03F080530193019B2E4D2B68D90577
:1030F0001BD5A3682A4D012B27D12B6F43F0010369
:103100002B6741F28838FFF75FF8254E0546336F8D
:103110009B073FD5002F3FF413AF214A136C23F0D8
:10312000805313640CE70027DFE72B6843F48073B8
:103130002B60FFF749F806462B68DA05D9D4FFF76C
:1031400043F8801B6428F7D92CE7ABB92B6F41F209
:10315000883823F001032B672B6F23F004032B67C0
:10316000FFF732F806462B6F9807D3D5FFF72CF8F8
:10317000801B4045F7D915E7052B2B6F03D143F092
:1031800004032B67B9E723F001032B672B6F23F0B0
:103190000403B5E7FFF718F8401B4045B7D901E72E
:1031A00000380240007000403C4DAB6803F00C0357
:1031B000082B42D02B68022A23F080732B602FD17A
:1031C000FFF702F806462B68990123D4D4E90732A9
:1031D0001343626A43EA8213E26A43EA0263226BA0
:1031E00043EA0273A26A5208013A43EA02436B605F
:1031F0002B6843F080732B60FEF7E6FF274D0446F3
:103200002B689A013FF5A0AEFEF7DEFF001B0228F7
:10321000F6D9C7E6FEF7D8FF801B0228D3D9C1E64E
:10322000FEF7D2FF04462B689B017FF58DAEFEF7BB
:10323000CBFF001B0228F6D9B4E6012A6B683FF4E5
:103240009AAE03F48002E1698A427FF494AE03F0FF
:103250003F02216A8A427FF48EAE47F6C072616AED
:103260001A40B2EB811F7FF486AEA26A03F44031AC
:103270005208013AB1EB024F7FF47DAE03F0706269
:10328000E16AB2EB016F7FF476AE03F0E043226BAC
:10329000B3EB027F3FF458AE6DE600BF003802404A
:1032A000134908B58B6803F00C03042B1BD0082BC3
:1032B0001BD14A684B68496802F03F0213F480034F
:1032C000C1F388111ABF0B4800230B48A1FB000172
:1032D000FDF706F8064B5B68C3F3014301335B005F
:1032E000B0FBF3F008BD0348FCE70348FAE700BF72
:1032F0000038024000127A000024F4002DE9F04169
:103300000D46044610B90120BDE8F081454A136816
:1033100003F00F038B4228D321688F0730D4C807EE
:1033200043D4404A136803F00F03AB4266D82268C7
:1033300051076FD4130707D53B4A2169936823F4DB
:10334000604343EAC1039360FFF7AAFF364B374A55
:103350009B68C3F30313D35CD840354B1860354BDF
:103360001868FEF7D3FB0020CEE7136823F00F03A5
:103370000B431360136803F00F038B42C3D1CBE7F9
:1033800011F0040F284B03D09A6842F4E0529A607F
:103390000E0703D59A6842F460429A609A68A06862
:1033A00022F0F00202439A60B9E761681E4B0129DE
:1033B0001A681BD112F4003FA5D09A6841F28838F0
:1033C000194F22F003020A439A60FEF7FDFE0646FB
:1033D000BB68626803F00C03B3EB820FA1D0FEF769
:1033E000F3FE801B4045F3D903208DE7022902D16B
:1033F00012F0007FE0E712F0020FDDE7136823F020
:103400000F032B431360136803F00F03AB427FF4E9
:103410007AAF8CE70449E0688B6823F4E0530343F8
:103420008B6087E7003C024000380240DCA90008BE
:103430005000002058000020044B054A9B68C3F34D
:103440008223D35C034A1068D8407047003802409A
:10345000ECA9000850000020044B054A9B68C3F308
:103460004233D35C034A1068D840704700380240AA
:10347000ECA90008500000200F2303600B4B9A6852
:1034800002F0030242609A6802F0F00282609A68D9
:1034900002F4E052C2609B68DB0803F4E05303616E
:1034A000034B1B6803F00F030B60704700380240AA
:1034B000003C024003682DE9F74313F0010604467F
:1034C0000BD0B14A916821F400019160466B91687C
:1034D0003143B6FA86F67609916013F4002512D0CE
:1034E000A949E56BD1F88C20B5F5801F22F4401274
:1034F00008BF012642EA050216BFB5FA85F5002588
:103500006D09C1F88C20D90210D59F48216CD0F8E4
:103510008C20B1F5800F22F4400242EA0102C0F88B
:103520008C2000F0AA81002908BF012513F0807FBC
:1035300018BF01269A0632D5934B944F1A6C42F06D
:1035400080521A641B6C03F080530193019B3B680B
:1035500043F480733B60FEF737FE80463B68DB0533
:1035600040F18D81884F226B3B6F13F4407340F024
:103570009181236B03F44072B2F5407F824A40F0A0
:10358000AE81916823F0704021F4F81120F440706E
:1035900001439160C3F30B03116F0B43136723685F
:1035A000DA060CD5784AD2F88C1021F08071C2F876
:1035B0008C10D2F88C10A06B0143C2F88C105F0401
:1035C00008D57149606ED1F8902022F44032024350
:1035D000C1F89020180408D56B49A06ED1F890204E
:1035E00022F440220243C1F89020D90308D566494D
:1035F000E06ED1F8902022F440120243C1F89020EE
:103600009A0308D56049206FD1F8902022F4400237
:103610000243C1F890205F0608D55B49606CD1F881
:10362000902022F003020243C1F89020180608D52A
:103630005549A06CD1F8902022F00C020243C1F849
:103640009020D90508D55049E06CD1F8902022F09F
:1036500030020243C1F890209A0508D54A49206DEE
:10366000D1F8902022F0C0020243C1F890205F05FB
:1036700008D54549606DD1F8902022F4407202438C
:10368000C1F89020180508D53F49A06DD1F89020C9
:1036900022F440620243C1F89020D90408D53A4987
:1036A000E06DD1F8902022F440520243C1F89020FE
:1036B0009A0408D53449206ED1F8902022F4404273
:1036C0000243C1F890205F0208D52F49A06FD1F8BE
:1036D000902022F080620243C1F8902098020CD51D
:1036E0002948E16FD0F89020B1F1006F22F000621C
:1036F00008BF01250A43C0F8902013F0080F18BF37
:103700000125590308D52049606FD1F8902022F097
:1037100040720243C1F890201A0209D51A49D4F820
:103720008000D1F8902022F080520243C1F890200E
:103730005F0109D51449D4F88400D1F8902022F013
:1037400000520243C1F89020180109D50E49D4F85F
:103750008800D1F88C2022F000720243C1F88C203E
:10376000D90009D50849D4F88C00D1F88C2022F072
:1037700080620243C1F88C20012E00F0B4809A01CF
:1037800000F1B18004E000BF00380240007000404A
:10379000012D70D19D4D2B6823F080532B60FEF7D7
:1037A00013FD06462B689F0000F1218121680E035E
:1037B00001D5E36B1BB1CD021DD5236CDBB9934A58
:1037C000D2F88830D2F8880003F4403300F0E040AB
:1037D0000343606943EA8013A06943EA0063C2F8C7
:1037E0008830D2F88C30A06A23F4F853013843EAC9
:1037F0000023C2F88C30880215D5E36FB3F1006F57
:1038000011D1824AD2F88830D2F8880003F0706370
:1038100000F0E0400343606943EA8013206A43EA12
:103820000043C2F888300A0719D5784AD2F88810C0
:10383000D2F8883001F0706103F440330B436169C2
:1038400043EA8113E16943EA0173C2F88830D2F890
:103850008C30E16A23F440330B43C2F88C306B4C5C
:10386000236843F080532360FEF7AEFC05462368CF
:103870009B0040F1C380002009E0012656E6FEF7D8
:10388000A3FCA0EB080064287FF668AE032003B019
:10389000BDE8F08302F440729A423FF46AAE3B6F97
:1038A0003A6F23F4407342F480323A673A6F22F45D
:1038B00080323A673B673B6FD8077FF55AAEFEF719
:1038C00083FC41F2883980463B6F99073FF551AE42
:1038D000FEF77AFCA0EB08004845F5D9D6E79168D9
:1038E00021F4F81155E6494E336823F080633360C4
:1038F000FEF76AFC074633681B0172D42268D707BB
:1039000012D5636B83B9D6F88430D6F8841003F4EB
:10391000403301F070610B43616843EA8113A16891
:1039200043EA0173C6F88430160303D5E36BB3F59D
:10393000801F05D0D0021ED5236CB3F5800F1AD19D
:103940003249D1F88430D1F8840003F4403300F0D8
:10395000E0400343606843EA8013E06843EA0063A1
:10396000C1F88430D1F88C00636A20F01F00013B5D
:103970000343C1F88C30D10111D52449D1F88430EA
:10398000D1F8840003F0706300F0E0400343606806
:1039900043EA8013206943EA0043C1F8843092016E
:1039A0000DD5236962681B0443EA8213E26843EA87
:1039B0000263A26843EA0273144AC2F88430134EC9
:1039C000336843F080633360FEF7FEFB07463368DD
:1039D0001B013FF5DDAEFEF7F7FBC01B6428F6D9EF
:1039E00054E7FEF7F1FBC01B642884D94EE7FEF7CD
:1039F000EBFB801B64287FF6D5AE47E7FEF7E4FBC0
:103A0000401B64287FF633AF40E700BF0038024018
:103A1000F7B50E4614460546FEF7D6FB3444241A85
:103A2000FEF7D2FB224B07461B68C3F3CB3363433D
:103A30002A680193936813F0800301D118462DE0A2
:103A4000731CF7D0FEF7C0FBC01BA04228D32B6825
:103A50005A6822F0E0025A606A68B2F5827F0AD1A1
:103A6000AA68B2F5004F02D0B2F5806F03D11A6890
:103A700022F040021A60AA6AB2F5005F07D11A6804
:103A800022F400521A601A6842F400521A600123AC
:103A9000032085F85D30002385F85C3003B0F0BD6D
:103AA000019B002B019B08BF0024013BC0E700BF26
:103AB000500000202DE9F74317461C460023054619
:103AC0003C440E468DF80330FEF77EFB241AFEF7C9
:103AD0007BFB294B23228046D5F800901B6853437B
:103AE0001B0D63432A6801939368334001D1184644
:103AF00038E0B6F5C06F06D199F80C30DBB28DF81E
:103B000003309DF803307B1CEED0FEF75DFBA0EB8D
:103B10000800A04229D32B685A6822F0E0025A60BC
:103B20006A68B2F5827F0AD1AA68B2F5004F02D066
:103B3000B2F5806F03D11A6822F040021A60AA6AB7
:103B4000B2F5005F07D11A6822F400521A601A68B1
:103B500042F400521A600123032085F85D300023EF
:103B600085F85C3003B0BDE8F083019B002B019B1E
:103B700008BF0024013BB5E75000002030B585B0F8
:103B800013460D46044601920A464FF4C051FFF712
:103B900091FF019B28B1236E032043F0200323668D
:103BA0001DE0154A15491268B2FBF1F24FF47A7123
:103BB0004A4303926268B2F5827F12D11A462946BF
:103BC00020460193FFF724FF019B0028E3D12A46FA
:103BD0004FF4C0612046FFF76DFF0028DBD105B030
:103BE00030BD039A002AF2D0039A013A0392226868
:103BF00092681206F5D4EAE75000002000366E0104
:103C000070B50446002863D0436A002B5CD142683B
:103C1000B2F5827F00D0C3610023A36294F85D30C7
:103C200003F0FF0223B9204684F85C20FDF79AFDDB
:103C300002232268E06884F85D301368B0F5E06F15
:103C400023F0400313604FF0000343D84FF4805536
:103C500000D0A362636800F47060A66803F4827306
:103C6000A16906F404463343266906F0020633438D
:103C7000666906F00106334301F40076090C33430C
:103C8000E66901F0040106F038063343266A06F0BF
:103C900080063343A66A06F400563343666B13600E
:103CA00006F00806636A03F0100333430343002061
:103CB0000B432B435360D36923F40063D361012387
:103CC000206684F85D3070BD0023C0E90433A3E7AB
:103CD0000120F8E71D46B0F5706FB9E72DE9F7430D
:103CE0001F4690F85C3004460D46012B904600F0CC
:103CF000B680012380F85C30FEF766FA94F85D30F8
:103D00008146012BD8B240F0A880002D63D0B8F1D5
:103D1000000F60D003232668A56384F85D3000237C
:103D2000A4F83C8023662364A4F83E80A4F84430C1
:103D3000A4F84630C4E91333A368B3F5004F07D1A4
:103D4000336823F040033360336843F480433360C7
:103D500033685B0603D4336843F040033360E268A2
:103D60006368B2F5E06F3FD913B1B8F1010F07D125
:103D700035F8023BF360A563E38F013B9BB2E38719
:103D8000E38F9BB2A3B94A4639462046FFF7F6FEB9
:103D900000285FD1A36833B901932368DA680192E0
:103DA0009B680193019B206E003818BF012012E030
:103DB000226893689D0705D5A36B33F8021BD16079
:103DC000A363D9E7FEF700FAA0EB0900B842D7D306
:103DD000781CD5D00320012384F85D30002384F8BB
:103DE0005C3003B0BDE8F08313B1B8F1010F13D11B
:103DF000E38F9BB2012B06D935F8023BF360A56334
:103E0000E38F023B06E02B783373A36B0133A3638C
:103E1000E38F013B9BB2E387E38F9BB2002BB2D0D1
:103E20002268936899070CD5E18FA36B89B20129A9
:103E300004D933F8021BD160A363E1E71B78137345
:103E4000E3E7FEF7C1F9A0EB0900B842E4D37B1C1D
:103E5000E2D0BFE7202323669CE70220BBE70220D5
:103E6000BFE7000038B590F85C300446012B76D0EF
:103E7000012380F85C3090F85D30012BDDB26CD10D
:103E800000294BD0002A49D003238287816380F820
:103E90005D30002303660364C287A0F84430A0F8B5
:103EA00046300268C0E913338368B3F5004F07D189
:103EB000136823F040031360136843F480431360D6
:103EC000606D284B0364284BC363284BC3640023F5
:103ED0000365536823F480435360E368B3F5E06FF0
:103EE0000FD88369B3F5005F0BD1E38F13F0010F97
:103EF000536818D123F480435360E38FC3F34E0318
:103F0000E387E38F0C329BB2FEF702FB98B1236E7E
:103F100043F010032366012384F85D30002384F806
:103F20005C30284638BD43F480435360E38FC3F3CD
:103F30004E030133E4E723681A68520603D41A6873
:103F400042F040021A605A68002542F020025A608E
:103F50005A6842F002025A60E0E70225DEE70225D5
:103F6000DFE700BF753F0008A33F0008813F00085E
:103F700070477047806B08B5FFF7FBFF08BD7047BF
:103F8000806B026808B5536823F003035360036E27
:103F900043F010030366012380F85D30FFF7EFFF65
:103FA00008BD37B50546846BFEF70EF902462B684F
:103FB0001B68DB0526D423682046596821F02001C0
:103FC0005960596821F0020159606421FFF7D6FD5C
:103FD00018B1236E43F020032366A36833B901931D
:103FE0002368DA6801929B680193019B0023E387B1
:103FF000012384F85D30236E23B12046FFF7BFFF15
:1040000003B030BD2046FFF7B3FFF9E7036A23F0A2
:10401000010370B50362036A4268846923F00203F6
:104020000D6824F4803424F073042C438D682B43F2
:104030000E4DA84202D00E4EB04211D123F008031B
:10404000CE68A84243EA060323F0040302D0084DD9
:10405000A84205D122F44072D1E9055635432A43DE
:1040600042604A6884614263036270BD000001409F
:1040700000040140036A23F4807370B50362036A8D
:104080004268C46923F400730D6824F4803424F07A
:1040900073042C438D6843EA0523114DA84203D0D5
:1040A00005F58065A84214D1CD6823F4006343EA86
:1040B00005230B4DA84223F4806303D005F58065EA
:1040C000A84206D122F44052D1E90556354342EACE
:1040D000051242604A68C461C263036270BD00BFDA
:1040E00000000140036A23F4805330B50362026A82
:1040F0004468C36922F400520D6823F0807323F4EE
:10410000E64343EA05238D6842EA0532084DA8429A
:1041100003D005F58065A84204D124F480444D699C
:1041200044EA85144460C3614B680364026230BD95
:1041300000000140036A23F4803330B50362026A51
:104140004468436D22F400320D6823F4803323F079
:1041500070032B438D6842EA0542094DA84203D003
:1041600005F58065A84204D124F480344D6944EA01
:104170000524446043654B688365026230BD00BF1F
:1041800000000140036A23F4801330B50362026A21
:104190004468436D22F400120D6823F0807323F409
:1041A000E04343EA05238D6842EA0552084DA842E0
:1041B00003D005F58065A84204D124F480244D691C
:1041C00044EA8524446043654B68C365026230BDA0
:1041D000000001407047000090F83D30012B33D1C2
:1041E000022380F83D300368DA6842F00102DA60A9
:1041F000164A93421AD0B3F1804F17D0A2F57C42F1
:10420000934213D002F5806293420FD002F5806290
:1042100093420BD002F57842934207D002F57052D8
:10422000934203D0A2F59432934207D19968084A89
:104230000A40062A06D0B2F5803F03D01A6842F041
:1042400001021A6000207047012070470000014001
:1042500007000100704770477047704703681A698C
:10426000910710B504460FD5DA6892070CD56FF0A8
:1042700002021A61012202779B69990700F085808A
:10428000FFF7E9FF0023237723681A69520710D547
:10429000DA6850070DD56FF0040220461A61022239
:1042A00022779B6913F4407F75D0FFF7D4FF00237A
:1042B000237723681A6911070FD5DA6812070CD51E
:1042C0006FF0080220461A6104222277DB699B07FF
:1042D00067D0FFF7C0FF0023237723681A69D00651
:1042E00010D5DA68D1060DD56FF0100220461A619C
:1042F00008222277DB6913F4407F58D0FFF7ABFF29
:104300000023237723681A69D20708D5DA68D00713
:1043100005D56FF0010220461A61FDF7EDF923681B
:104320001A69110608D5DA68120605D56FF0800201
:1043300020461A6100F0A7FA23681A69D00508D54B
:10434000DA68110605D56FF4807220461A6100F014
:104350009BFA23681A69520608D5DA68500605D513
:104360006FF0400220461A61FFF777FF23681A6951
:10437000910622D5DA6892061FD56FF020022046FA
:104380001A61BDE8104000F07DBAFFF763FF2046D8
:10439000FFF762FF76E7FFF75DFF2046FFF75CFF60
:1043A00085E7FFF757FF2046FFF756FF93E7FFF734
:1043B00051FF2046FFF750FFA2E710BD304A0368C7
:1043C000904212D0B0F1804F0FD0A2F57C429042C3
:1043D0000BD002F58062904207D002F580629042D5
:1043E00003D002F57842904219D14A6823F0700355
:1043F0001343234A904229D0B0F1804F26D0A2F532
:104400007C42904222D002F5806290421ED002F59A
:10441000806290421AD002F57842904216D0194A32
:10442000904213D002F5806290420FD002F5806274
:1044300090420BD0A2F59832904207D002F58062EC
:10444000904203D002F58062904203D123F440737E
:10445000CA6813434A6923F08003134303608B68DF
:10446000C3620B688362064B984203D003F58063F6
:10447000984201D10B69036301234361704700BF78
:10448000000001400040014010B5044650B390F8D0
:104490003D3003F0FF021BB980F83C20FFF79AFE85
:1044A00002232068211D84F83D30FFF787FF012398
:1044B000002084F8483084F83E3084F83F3084F897
:1044C000403084F8413084F8423084F8433084F836
:1044D000443084F8453084F8463084F8473084F816
:1044E0003D3010BD0120FCE710B5044650B390F8F4
:1044F0003D3003F0FF021BB980F83C20FDF7C8FBFC
:1045000002232068211D84F83D30FFF757FF012367
:10451000002084F8483084F83E3084F83F3084F836
:10452000403084F8413084F8423084F8433084F8D5
:10453000443084F8453084F8463084F8473084F8B5
:104540003D3010BD0120FCE7036A23F0100370B575
:104550000362036A4268846923F020030D6824F033
:10456000807424F4E64444EA05248D6843EA051384
:10457000104DA84203D005F58065A84214D1CD683E
:1045800023F0800343EA05130A4DA84223F04003B9
:1045900003D005F58065A84206D122F44062D1E936
:1045A0000556354342EA850242604A688461826367
:1045B000036270BD0000014070B590F83C300546C4
:1045C000012B74D001230C2A80F83C304FD009D83D
:1045D000042A2CD0082A3AD0C2B11846002385F804
:1045E0003C3070BD102A52D0142AF6D10068FFF773
:1045F000C9FD0A69436D43F400634365436D23F4C9
:1046000080634365436D43EA02234EE00068FFF791
:10461000FDFC0A69836943F008038361836923F021
:10462000040383618369134383610020D6E7006834
:10463000FFF78AFF0A69836943F400638361836932
:1046400023F480638361836943EA0223ECE7006813
:10465000FFF710FD0A69C36943F00803C361C3692A
:1046600023F00403C361C3691343C361DDE700683A
:10467000FFF738FD0A69C36943F40063C361C36986
:1046800023F48063C361C36943EA0223EDE7006852
:10469000FFF750FD0A69436D43F008034365436D1E
:1046A00023F004034365436D13434365BDE70220D4
:1046B00097E701F01F01036A10B501248A408C407E
:1046C00023EA04030362036A1A43026210BD000076
:1046D000082908B525D00FD8A9B1042919D090F818
:1046E0004330012B13D108292BD899B3042914D0B6
:1046F000022380F8433030E00C291FD01029EED17E
:1047000090F842300FE090F83E30012B22D001208B
:1047100036E090F83F30012BF9D1022380F83F308A
:104720001BE090F84030013B18BF0123002BEED175
:104730000829D8D1022380F840300EE090F84130AB
:10474000F1E70C294FF002031BD01029D0D180F8DB
:10475000423002E0022380F83E3000680122FFF779
:10476000A8FF1D4A90420FD01C4B98420CD0B0F1CC
:10477000804F10D182681A4B1340062B27D100209E
:1047800008BD80F84130E8E7436C904243F40043B1
:104790004364EFD0EBE7134B9842EBD003F5806313
:1047A0009842E7D003F580639842E3D003F578435D
:1047B0009842DFD003F570539842DBD0A3F59433D1
:1047C0009842D7D0036843F001030360D7E7B3F5FD
:1047D000803FF7D1D3E700BF000001400004014053
:1047E0000700010000040040FFF772BF70B590F8A9
:1047F0003C30012B4FF002033BD080F83D301E4D82
:104800000368AB425A689C6802D01C4EB34203D185
:1048100022F470024E6832430E6822F07002AB42FE
:1048200042EA06025A6019D0B3F1804F16D0144AFA
:10483000934213D002F5806293420FD002F580625A
:1048400093420BD002F57842934207D002F57052A2
:10485000934203D0A2F59432934204D1896824F0A4
:1048600080020A439A60012380F83D30002380F8DB
:104870003C30184670BD00BF0000014000040140FC
:1048800000040040704770477047026852E8003FDC
:1048900023F4907342E8003102680029F5D102F157
:1048A000080353E8003F23F0010302F1080C4CE831
:1048B00000310029F3D1036E012B07D152E8003FEC
:1048C00023F0100342E800310029F7D12023C0F87B
:1048D000803000230366836670477047704708B5D1
:1048E000806B0023A0F85A30A0F85230FFF7F6FF93
:1048F00008BD7047D0F88020B0F85C10222A08B5B7
:10490000036843D15B6A426D0B401370436D013302
:104910004365B0F85A30013B9BB2A0F85A30B0F86A
:104920005A309BB273BB026852E8003F23F4907385
:1049300042E8003103680029F5D103F1080252E88A
:10494000001F21F0010194464CE80012002AF4D126
:1049500020218266C0F880104266016E012912D1C2
:10496000026653E8002F22F0100243E800210029DC
:10497000F7D1DA69D20601D510221A62B0F85810C0
:10498000FFF7B7FF08BDFCF799FEFBE79A6942F015
:1049900008029A61F6E7D0F88020B0F85C10222A6D
:1049A00008B5036840D15A6A1140426D22F8021BD3
:1049B0004265B0F85A20013A92B2A0F85A20B0F8F5
:1049C0005A2092B262BB53E8002F22F4907243E85F
:1049D00000210029F7D103F1080252E8001F21F05D
:1049E000010194464CE80012002AF4D1202182668D
:1049F000C0F880104266016E012912D1026653E8A8
:104A0000002F22F0100243E800210029F7D1DA69D3
:104A1000D20601D510221A62B0F85810FFF769FFCC
:104A200008BDFCF74BFEFBE79A6942F008029A6169
:104A3000F6E77047036870B5DA6940F60F06196843
:104A4000044632429D680BD1960640F188808E065E
:104A500040F18580836E002B7BD0BDE87040184705
:104A60009A4E05F001000E40064378D0D50709D5CF
:104A7000CE0507D501251D62D4F8845045F0010507
:104A8000C4F88450950708D538B102251D62D4F8C2
:104A9000845045F00405C4F88450560708D538B151
:104AA00004251D62D4F8845045F00205C4F88450F2
:104AB00015070BD501F02005054307D00820186223
:104AC000D4F8840040F00800C4F8840016050AD524
:104AD0004D0108D54FF400601862D4F8843043F0DB
:104AE0002003C4F88430D4F88430002B31D09006F1
:104AF00005D58A0603D5A36E0BB1204698472668D4
:104B00002046D4F88420B36802F0280203F0400362
:104B100053EA02051ED0FFF7B8FEB3685B0615D551
:104B2000226802F1080353E8003F23F040030832F3
:104B300042E800310029F3D1606F38B1644B03655E
:104B4000FDF762FD28B1606F036D86E72046FFF731
:104B5000C5FE70BDFFF7C2FEC4F88450F9E7206EB1
:104B6000012840F08880D60640F18580C80640F1D3
:104B7000828010221A629A6852064AD5616F0A68CA
:104B8000526892B2002AE4D0B4F858009042E0D9BA
:104B9000A4F85A20CA69B2F5807F2ED053E8002FBE
:104BA00022F4807243E800210029F7D103F10802C2
:104BB00052E8002F22F0010203F1080040E8002132
:104BC0000029F3D103F1080252E8002F22F040023D
:104BD00003F1080040E800210029F3D12022C4F8A5
:104BE0008020216653E8002F22F0100243E80021C4
:104BF0000029F7D1606FFDF7C8FC0223B4F8581004
:104C00006366B4F85A30C91A89B22046FFF771FEBC
:104C10009FE7B4F85A20B4F85A00B4F8581092B28A
:104C200080B2002895D0891A89B2002991D053E822
:104C3000002F22F4907243E800200028F7D103F1FE
:104C4000080252E8002F22F0010203F1080545E8AE
:104C500000200028F3D12022A066C4F8802020661E
:104C600053E8002F22F0100243E800200028F7D17B
:104C700002236366C9E7D60208D5680206D54FF459
:104C8000801220461A62FFF7D4FE62E7160607D5A7
:104C90000D0605D5E36E002B3FF45BAF2046DCE646
:104CA00050067FF556AF4A067FF553AF53E8002F05
:104CB00022F0400243E800210029F7D120232046BA
:104CC000E166E367FFF709FE43E700BF2001000448
:104CD000DF48000838B50446C0692169A268236826
:104CE0000A4361691D680A438E4902432940256AC7
:104CF0000A43E1681A605A6822F440520A435A6033
:104D0000A26999682A4321F430610A439A60864A6D
:104D1000934217D1854BD3F8903003F00303013B46
:104D2000022B00F2E280824AB0F5004FD35C40F0E3
:104D3000B380082B22D8DFE803F090DB9821D5213F
:104D4000212199007B4A934206D1784B7A4AD3F8C5
:104D5000903003F00C03E7E7784A934218D1734B85
:104D6000D3F8903003F03003202B00F0B38007D845
:104D7000002B00F0C080102B00F0B180012070E00B
:104D8000302BFBD1B0F5004F70D04FF40040B9E0AC
:104D90006B4A93420FD1654BD3F8903003F0C003B8
:104DA000802B00F0978004D8002B00F0A480402BCB
:104DB000E2E7C02BE5E7634A934212D15B4BD3F89D
:104DC000903003F44073B3F5007F00F0838005D882
:104DD000002B00F09080B3F5807FCDE7B3F5407FE6
:104DE000CFE7594A934210D1504BD3F8903003F497
:104DF0004063B3F5006F6DD004D8002B75D0B3F5C8
:104E0000806FB9E7B3F5406FBBE7504A934210D1CA
:104E1000464BD3F8903003F44053B3F5005F59D0BC
:104E200004D8002B67D0B3F5805FA5E7B3F5405FEA
:104E3000A7E7474A9342A1D13C4BD3F8903003F403
:104E40004043B3F5004F45D004D8002B53D0B3F501
:104E5000804F91E7B3F5404F93E7FEF7EDFA28B99D
:104E600000200023C4E91A3338BD3A486268530869
:104E700003EB4003B3FBF2F34FF6EF72A3F1100123
:104E800091423FF67BAF23F00F02C3F34203216848
:104E900092B21343CB60E3E7082B3FF66FAF01A25A
:104EA00052F823F0FD4E0008C94E0008DB4E000802
:104EB0007D4D0008CF4E00087D4D00087D4D000857
:104EC0007D4D00088B4D0008FEF7C6FA18E0FEF78E
:104ED000E7F915E0B0F5004FC7D01E4812E0B0F575
:104EE000004FF4D1FEF7DCF9B9E7B0F5004FEBD194
:104EF000FEF7B2FAB3E7B0F5004FAED0FEF79CFA7A
:104F00000028ADD0626800EB5203B3FBF2F34FF61A
:104F1000EF72A3F1100191423FF630AF2268D360E7
:104F20009EE700BFF369FFEF001001400038024028
:104F300024AB00080044004027AB000800480040B4
:104F4000004C004000500040001401400078004038
:104F5000007C00400024F400436ADA0710B506D54F
:104F60000168846A4A6822F4003222434A609C073E
:104F700006D50168C46A4A6822F4803222434A6036
:104F8000590706D50168046B4A6822F4802222433F
:104F90004A601A0706D50168446B4A6822F4004249
:104FA00022434A60DC0606D50168846B8A6822F4D5
:104FB000805222438A60990606D50168C46B8A68CC
:104FC00022F4005222438A605A0610D50168046C0C
:104FD0004A68B4F5801F22F4801242EA04024A6053
:104FE00005D14A68446C22F4C00222434A601B0681
:104FF00006D50268816C536823F400230B43536089
:1050000010BD2DE9F041DDF8188004460E46154626
:105010001F462268D36936EA03030CBF012300232D
:10502000AB4201D0002026E0B8F1FF3FF2D0FDF7FF
:10503000CBF8C01B4045206802D8B8F1000F1CD146
:1050400050E8003F23F4D07340E80032002AF7D143
:1050500000F1080353E8003F23F0010300F10801C9
:1050600041E80032002AF3D12023E367C4F88030FE
:10507000032084F87820BDE8F08103685A07C8D57A
:10508000C3691B05C5D54FF40063036250E8003FB8
:1050900023F4D07340E80032002AF7D100F108036E
:1050A00053E8003F23F0010300F1080141E800321A
:1050B000002AF3D12023E367C4F88030C4F8843099
:1050C000D6E730B50025044685B0C0F88450FDF71A
:1050D0007BF8226803461268110717D42268126809
:1050E000520709D56FF07E424FF4800120460092AE
:1050F0000022FFF786FFB0B90020202384F8780053
:10510000E367C4F88030206660660DE06FF07E4291
:1051100003904FF40011204600922A46FFF771FFDA
:10512000039B0028DAD0032005B030BD10B504463B
:1051300040B3C36F1BB980F87830FCF73FFE22689C
:1051400024232046E367136823F001031360FFF76D
:10515000C1FD012816D0636A13B12046FFF7FCFE9B
:10516000236820465A6822F490425A609A6822F0D6
:105170002A029A601A6842F00102BDE810401A60E3
:10518000FFF79FBF012010BD10B5A0F858200023E5
:10519000A0F85A2082684165B2F5805F836630D1FD
:1051A0000369002B40F2FF1318BFFF23A0F85C3007
:1051B0000023C0F884302223C0F88030026802F156
:1051C000080353E8003F43F00103083242E800318E
:1051D00002680029F2D183680169B3F5805F20D1AC
:1051E000154B164C002918BF23468366D9B152E8E7
:1051F000003F43F4907342E800310029F7D10020CA
:1052000010BD2AB90369002B14BF7F23FF23CDE70C
:10521000B2F1805FCAD10369002B0CBF7F233F230B
:10522000C4E7064BE1E752E8003F43F0200342E8C1
:1052300000310029F7D1E2E797490008F548000856
:10524000D0F88030202B30B412D1A1B19AB1002314
:105250000468036663681B0207D554E8003F43F007
:10526000806344E80035002DF7D130BCFFF78CBFD8
:10527000022030BC70470120FBE710B501F03AFE78
:1052800020B1D0E90030BDE81040184710BD000043
:10529000EFF3058313B16FF005007047EFF3108251
:1052A000074B12B9EFF3118212B11A68022AF2D039
:1052B000186810B901221A6070474FF0FF3070472C
:1052C000900A002008B5EFF3058313B16FF00500D5
:1052D00008BDEFF310820A4B12B9EFF3118212B13D
:1052E0001A68022AF2D01A68012A05D102221A602D
:1052F00000F0EAFF0020EBE74FF0FF30E8E700BFE7
:10530000900A0020F0B5144687B000220B460592A3
:10531000EFF305821ABBEFF3108212B9EFF311829B
:105320001AB1214A1268022A19D0C0B16CB3A5691A
:10533000002D08BF18256A1EAC46372A2AD8626895
:10534000D20727D466696EB1B2082168D4E9027E1B
:1053500057B1BEF1A70F02D9246904B1E6B9059887
:1053600007B0F0BD8022F0E7BEF1000FF7D124694D
:10537000002CF4D105AC92B2CDE900C400F064FE7B
:1053800001281CBF00230593E9E721464FF0180CC4
:105390008022EFE70020E3E7CDE90147009500F028
:1053A00015FE0590DBE700BF900A002008B5EFF37B
:1053B000058313B16FF0050008BDEFF3108313B937
:1053C000EFF311831BB1054B1B68022BF2D00028B1
:1053D000F2D001F0FFF80020EEE700BF900A0020B5
:1053E000F7B506460D4617461C46EFF3058313B185
:1053F000002003B0F0BDEFF3108313B9EFF3118376
:105400001BB1144B1B68022BF2D0002EF0D00820E9
:1054100001F08AFF03460028EAD02A1EC0E900678F
:1054200018BF0122A4B12068D4E9021441B12B2C89
:10543000DED9019108490091012101F0BFFBD8E7B5
:10544000002CD5D104490091012101F09DFBD0E74A
:105450002046F7E7900A00207B52000807B50A466D
:10546000EFF3058323B16FF0050003B05DF804FB93
:10547000EFF3108313B9EFF311831BB1094B1B68D2
:10548000022BF0D050B100230421009301F0C2FBA5
:1054900001280CBF00206FF00200E6E76FF0030068
:1054A000E3E700BF900A0020034B0360034B0B604F
:1054B00080231360704700BFE8090020E807002040
:1054C000034B0360034B0B604FF480731360704712
:1054D000940E0020940A002000F108034FF0FF32E0
:1054E00043600361C0E90223002303607047002387
:1054F0000361704743689A684B608A609A6851609C
:1055000099600368086101330360704730B50C6827
:10551000631C0AD103695A684A6091608B605960C4
:10552000036808610133036030BD00F108021346CF
:1055300052681568A542FAD9EDE70369D0E901126E
:105540008A6051605968814208BF5A600022026136
:105550001A68013A1A601868704710B5044601F0DD
:1055600049FDA46B01F06AFDB4FA84F0400910BD56
:10557000F8B51546026C0446866B52B9076847BBFE
:10558000806801F009FA0546A76001362846A6633F
:10559000F8BD65B9406803F031F86368226C1344C4
:1055A000A26893426360F0D323686360EDE7C0684C
:1055B00003F024F8226CE36851429B1A226893425C
:1055C000E3603EBFA3685B18E360022D01D116B112
:1055D000013E0025D9E73546D7E7034608461A6C51
:1055E00010B462B1DC68996814448C42DC605DF8E8
:1055F000044B24BF1968D960D96802F0FFBF5DF879
:10560000044B704770B5044601F0F4FC94F8455023
:1056100004F124066DB2002D14DCFF2304F1100602
:1056200084F8453001F00AFD01F0E4FC94F84450A0
:105630006DB2002D12DCFF2384F84430BDE87040C9
:1056400001F0FCBC636A002BE7D0304601F0E8F8BB
:1056500008B101F07BF9013D6DB2DCE72369002B55
:10566000E9D0304601F0DCF808B101F06FF9013DF6
:105670006DB2DEE738B50D46044650B94FF0500321
:1056800072B683F31188BFF36F8FBFF34F8F62B68B
:10569000FEE701F0AFFC2268D4E90F3162604B43B2
:1056A000D0185B1AA0601A440020FF23E260A063B8
:1056B00084F8443084F84530A5B9236973B104F106
:1056C000100001F0ADF848B14FF0E0234FF08052E8
:1056D000C3F8042DBFF34F8FBFF36F8F01F0AEFC03
:1056E000012038BD04F11000FFF7F6FE04F124009C
:1056F000FFF7F2FEF2E7F7B506460D469DF820707B
:105700001C4653B94FF0500372B683F31188BFF3B0
:105710006F8FBFF34F8F62B6FEE75AB1B1B94FF04A
:10572000500372B683F31188BFF36F8FBFF34F8FAF
:1057300062B6FEE751B14FF0500372B683F31188A1
:10574000BFF36F8FBFF34F8F62B6FEE75023019315
:10575000019B502B0AD04FF0500372B683F311888F
:10576000BFF36F8FBFF34F8F62B6FEE7002D08BF08
:10577000224601212046019B84F846102260C4E99C
:105780000F65FFF777FF3B462A463146732084F8C2
:105790004C7002F0D7FA204603B0F0BD10B49DF86B
:1057A000044050B94FF0500372B683F31188BFF331
:1057B0006F8FBFF34F8F62B6FEE701945DF8044B25
:1057C000FFF799BF2DE9F04387B00E461D4604460A
:1057D000039250B94FF0500372B683F31188BFF3B0
:1057E0006F8FBFF34F8F62B6FEE761B9036C53B1A1
:1057F0004FF0500372B683F31188BFF36F8FBFF37E
:105800004F8F62B6FEE7022D0DD1E36B012B0AD05C
:105810004FF0500372B683F31188BFF36F8FBFF35D
:105820004F8F62B6FEE701F0A7F8804660B9039B90
:1058300063B14FF0500372B683F31188BFF36F8FDB
:10584000BFF34F8F62B6FEE74FF000084FF000093C
:1058500044E0039F6FB901F0F1FB204602F07EF8AF
:10586000039B014632465A20009502F0A5FA00201B
:105870005FE0B8F1000F02D104A801F01BF801F0BD
:10588000DDFB00F083FD01F0B5FB94F84430FF2B05
:1058900001D184F8449094F84530FF2B01D184F86D
:1058A000459001F0CBFB03A904A801F00FF80028F4
:1058B00055D101F09FFBA26BE36B9A423CD101F002
:1058C000BDFB039904F1100000F06AFF2046FFF7CA
:1058D00099FE00F007FEB8B34FF0010801F08AFB13
:1058E000A26BE36B9A4201D3022DB2D1204602F0A3
:1058F00035F8039B014632465A20009502F05CFAC7
:105900002A4631462046FFF733FE636A1BB104F195
:10591000240000F085FF48B14FF0E0234FF08052A3
:10592000C3F8042DBFF34F8FBFF36F8F01F086FBD9
:10593000012007B0BDE8F08301F080FB2046FFF7AF
:1059400061FE00F0CFFDC7E74FF0E0234FF080523B
:10595000C3F8042DBFF34F8FBFF36F8FBCE7204612
:10596000FFF750FE00F0BEFD77E72DE9F8438946CA
:1059700017469846044650B94FF0500372B683F369
:105980001188BFF36F8FBFF34F8F62B6FEE761B927
:10599000036C53B14FF0500372B683F31188BFF319
:1059A0006F8FBFF34F8F62B6FEE7B8F1020F0DD1D4
:1059B000E36B012B0AD04FF0500372B683F31188CA
:1059C000BFF36F8FBFF34F8F62B6FEE701F012FC9B
:1059D000EFF311864FF0500372B683F31188BFF3D3
:1059E0006F8FBFF34F8F62B6A26BE36B9A4202D305
:1059F000B8F1020F28D194F84550204601F0AEFFCF
:105A00003A4601466DB2602002F056F942464946D8
:105A10002046FFF7ADFD6B1C11D1636A0BB9012065
:105A200009E004F1240000F0FBFE0028F7D0002F6D
:105A3000F5D00120386086F31188BDE8F883013580
:105A40006DB284F84550EAE7204601F087FF3A46F8
:105A50000146602002F030F90020ECE72DE9F0412A
:105A600086B00F460446039250B94FF0500372B609
:105A700083F31188BFF36F8FBFF34F8F62B6FEE7DA
:105A800061B9036C53B14FF0500372B683F31188C0
:105A9000BFF36F8FBFF34F8F62B6FEE700F06CFF6E
:105AA000064660B9039B5BB14FF0500372B683F3B7
:105AB0001188BFF36F8FBFF34F8F62B6FEE70026EA
:105AC0004FF000084DE0039D95B901F0B7FA20466C
:105AD00001F044FF0290002001F040FF0123024644
